{
  "contractName": "ERC721Enumerable",
  "abi": [
    {
      "anonymous": false,
      "inputs": [
        {
          "indexed": true,
          "internalType": "address",
          "name": "from",
          "type": "address"
        },
        {
          "indexed": true,
          "internalType": "address",
          "name": "to",
          "type": "address"
        },
        {
          "indexed": true,
          "internalType": "uint256",
          "name": "tokenId",
          "type": "uint256"
        }
      ],
      "name": "Transfer",
      "type": "event"
    },
    {
      "inputs": [
        {
          "internalType": "address",
          "name": "_owner",
          "type": "address"
        }
      ],
      "name": "balanceOf",
      "outputs": [
        {
          "internalType": "uint256",
          "name": "",
          "type": "uint256"
        }
      ],
      "stateMutability": "view",
      "type": "function"
    },
    {
      "inputs": [
        {
          "internalType": "uint256",
          "name": "_tokenId",
          "type": "uint256"
        }
      ],
      "name": "ownerOf",
      "outputs": [
        {
          "internalType": "address",
          "name": "",
          "type": "address"
        }
      ],
      "stateMutability": "view",
      "type": "function"
    },
    {
      "inputs": [
        {
          "internalType": "address",
          "name": "_from",
          "type": "address"
        },
        {
          "internalType": "address",
          "name": "_to",
          "type": "address"
        },
        {
          "internalType": "uint256",
          "name": "_tokenId",
          "type": "uint256"
        }
      ],
      "name": "transferFrom",
      "outputs": [],
      "stateMutability": "nonpayable",
      "type": "function"
    },
    {
      "inputs": [],
      "name": "totalSupply",
      "outputs": [
        {
          "internalType": "uint256",
          "name": "",
          "type": "uint256"
        }
      ],
      "stateMutability": "view",
      "type": "function"
    },
    {
      "inputs": [
        {
          "internalType": "uint256",
          "name": "index",
          "type": "uint256"
        }
      ],
      "name": "tokenByIndex",
      "outputs": [
        {
          "internalType": "uint256",
          "name": "",
          "type": "uint256"
        }
      ],
      "stateMutability": "view",
      "type": "function"
    },
    {
      "inputs": [
        {
          "internalType": "address",
          "name": "owner",
          "type": "address"
        },
        {
          "internalType": "uint256",
          "name": "index",
          "type": "uint256"
        }
      ],
      "name": "tokenOfOwnerByIndex",
      "outputs": [
        {
          "internalType": "uint256",
          "name": "",
          "type": "uint256"
        }
      ],
      "stateMutability": "view",
      "type": "function"
    }
  ],
  "bytecode": "0x608060405234801561001057600080fd5b50610db4806100206000396000f3fe608060405234801561001057600080fd5b50600436106100625760003560e01c806318160ddd1461006757806323b872dd146100855780632f745c59146100a15780634f6ccce7146100d15780636352211e1461010157806370a0823114610131575b600080fd5b61006f610161565b60405161007c919061073e565b60405180910390f35b61009f600480360381019061009a91906107e8565b61016e565b005b6100bb60048036038101906100b6919061083b565b61017e565b6040516100c8919061073e565b60405180910390f35b6100eb60048036038101906100e6919061087b565b61029c565b6040516100f8919061073e565b60405180910390f35b61011b6004803603810190610116919061087b565b61030d565b60405161012891906108b7565b60405180910390f35b61014b600480360381019061014691906108d2565b6103bd565b604051610158919061073e565b60405180910390f35b6000600380549050905090565b610179838383610474565b505050565b60008073ffffffffffffffffffffffffffffffffffffffff168373ffffffffffffffffffffffffffffffffffffffff16036101ee576040517f08c379a00000000000000000000000000000000000000000000000000000000081526004016101e59061095c565b60405180910390fd5b6101f7836103bd565b8210610238576040517f08c379a000000000000000000000000000000000000000000000000000000000815260040161022f906109c8565b60405180910390fd5b600560008473ffffffffffffffffffffffffffffffffffffffff1673ffffffffffffffffffffffffffffffffffffffff1681526020019081526020016000208281548110610289576102886109e8565b5b9060005260206000200154905092915050565b60006102a6610161565b82106102e7576040517f08c379a00000000000000000000000000000000000000000000000000000000081526004016102de90610a63565b60405180910390fd5b600382815481106102fb576102fa6109e8565b5b90600052602060002001549050919050565b60008060008084815260200190815260200160002060009054906101000a900473ffffffffffffffffffffffffffffffffffffffff169050600073ffffffffffffffffffffffffffffffffffffffff168173ffffffffffffffffffffffffffffffffffffffff16036103b4576040517f08c379a00000000000000000000000000000000000000000000000000000000081526004016103ab90610acf565b60405180910390fd5b80915050919050565b60008073ffffffffffffffffffffffffffffffffffffffff168273ffffffffffffffffffffffffffffffffffffffff160361042d576040517f08c379a000000000000000000000000000000000000000000000000000000000815260040161042490610b3b565b60405180910390fd5b600160008373ffffffffffffffffffffffffffffffffffffffff1673ffffffffffffffffffffffffffffffffffffffff168152602001908152602001600020549050919050565b600073ffffffffffffffffffffffffffffffffffffffff168273ffffffffffffffffffffffffffffffffffffffff16036104e3576040517f08c379a00000000000000000000000000000000000000000000000000000000081526004016104da90610ba7565b60405180910390fd5b600073ffffffffffffffffffffffffffffffffffffffff168373ffffffffffffffffffffffffffffffffffffffff1603610552576040517f08c379a000000000000000000000000000000000000000000000000000000000815260040161054990610c13565b60405180910390fd5b8273ffffffffffffffffffffffffffffffffffffffff166105728261030d565b73ffffffffffffffffffffffffffffffffffffffff16146105c8576040517f08c379a00000000000000000000000000000000000000000000000000000000081526004016105bf90610ca5565b60405180910390fd5b60018060008573ffffffffffffffffffffffffffffffffffffffff1673ffffffffffffffffffffffffffffffffffffffff16815260200190815260200160002060008282546106179190610cf4565b9250508190555060018060008473ffffffffffffffffffffffffffffffffffffffff1673ffffffffffffffffffffffffffffffffffffffff168152602001908152602001600020600082825461066d9190610d28565b925050819055508160008083815260200190815260200160002060006101000a81548173ffffffffffffffffffffffffffffffffffffffff021916908373ffffffffffffffffffffffffffffffffffffffff160217905550808273ffffffffffffffffffffffffffffffffffffffff168473ffffffffffffffffffffffffffffffffffffffff167fddf252ad1be2c89b69c2b068fc378daa952ba7f163c4a11628f55a4df523b3ef60405160405180910390a4505050565b6000819050919050565b61073881610725565b82525050565b6000602082019050610753600083018461072f565b92915050565b600080fd5b600073ffffffffffffffffffffffffffffffffffffffff82169050919050565b60006107898261075e565b9050919050565b6107998161077e565b81146107a457600080fd5b50565b6000813590506107b681610790565b92915050565b6107c581610725565b81146107d057600080fd5b50565b6000813590506107e2816107bc565b92915050565b60008060006060848603121561080157610800610759565b5b600061080f868287016107a7565b9350506020610820868287016107a7565b9250506040610831868287016107d3565b9150509250925092565b6000806040838503121561085257610851610759565b5b6000610860858286016107a7565b9250506020610871858286016107d3565b9150509250929050565b60006020828403121561089157610890610759565b5b600061089f848285016107d3565b91505092915050565b6108b18161077e565b82525050565b60006020820190506108cc60008301846108a8565b92915050565b6000602082840312156108e8576108e7610759565b5b60006108f6848285016107a7565b91505092915050565b600082825260208201905092915050565b7f6f776e65722061646472657373207a65726f0000000000000000000000000000600082015250565b60006109466012836108ff565b915061095182610910565b602082019050919050565b6000602082019050818103600083015261097581610939565b9050919050565b7f6f776e657220696e646578206973206f7574206f6620626f756e647321000000600082015250565b60006109b2601d836108ff565b91506109bd8261097c565b602082019050919050565b600060208201905081810360008301526109e1816109a5565b9050919050565b7f4e487b7100000000000000000000000000000000000000000000000000000000600052603260045260246000fd5b7f676c6f62616c20696e646578206973206f7574206f6620626f756e6473210000600082015250565b6000610a4d601e836108ff565b9150610a5882610a17565b602082019050919050565b60006020820190508181036000830152610a7c81610a40565b9050919050565b7f4552433732313a204f776e657220646f6573206e6f7420657869737400000000600082015250565b6000610ab9601c836108ff565b9150610ac482610a83565b602082019050919050565b60006020820190508181036000830152610ae881610aac565b9050919050565b7f4552433732313a20416464726573732063616e6e6f74206265207a65726f0000600082015250565b6000610b25601e836108ff565b9150610b3082610aef565b602082019050919050565b60006020820190508181036000830152610b5481610b18565b9050919050565b7f4552433732313a20726563656976696e672061646472657373207a65726f0000600082015250565b6000610b91601e836108ff565b9150610b9c82610b5b565b602082019050919050565b60006020820190508181036000830152610bc081610b84565b9050919050565b7f4552433732313a2073656e64696e672061646472657373207a65726f00000000600082015250565b6000610bfd601c836108ff565b9150610c0882610bc7565b602082019050919050565b60006020820190508181036000830152610c2c81610bf0565b9050919050565b7f4552433732313a204f776e6572206164647265737320646f6573206e6f74206f60008201527f776e207468652073706563696669656420746f6b656e00000000000000000000602082015250565b6000610c8f6036836108ff565b9150610c9a82610c33565b604082019050919050565b60006020820190508181036000830152610cbe81610c82565b9050919050565b7f4e487b7100000000000000000000000000000000000000000000000000000000600052601160045260246000fd5b6000610cff82610725565b9150610d0a83610725565b925082821015610d1d57610d1c610cc5565b5b828203905092915050565b6000610d3382610725565b9150610d3e83610725565b9250827fffffffffffffffffffffffffffffffffffffffffffffffffffffffffffffffff03821115610d7357610d72610cc5565b5b82820190509291505056fea2646970667358221220ee0fc577aa89b4fde703cb03b0bc21523491d3dcd2a044d6165457b0739be4fd64736f6c634300080f0033",
  "immutableReferences": {},
  "source": "// SPDX-License-Identifier: MIT\r\npragma solidity ^0.8.0;\r\n\r\nimport './ERC721.sol';\r\n\r\ncontract ERC721Enumerable is ERC721 {\r\n\r\n    uint256[] private _allTokens;\r\n\r\n    // mapping from tokenId to position in _allTokens array\r\n    mapping(uint256 => uint256) private _allTokensIndex;\r\n\r\n    // mapping of owner to list of all owner token ids\r\n    mapping(address => uint256[]) private _ownedTokens;\r\n\r\n    // mapping from token ID index of the owner tokens list\r\n    mapping(uint256 => uint256) private _ownedTokensIndex;\r\n\r\n    // function tokenByIndex(uint256 _index) external view returns (uint256);\r\n\r\n    function _mint(address to, uint256 tokenId) internal override(ERC721) {\r\n        super._mint(to, tokenId);\r\n\r\n        // A. Add tokens to the owner\r\n        // B. All tokens to our totalsupply - to allTokens\r\n\r\n        _addTokensToAllTokenEnumeration(tokenId);\r\n        _addTokensToOwnerEnumeration(to, tokenId);\r\n    }\r\n\r\n\r\n    // add tokens to the _allTokens array and set the position of the tokens indexes\r\n    function _addTokensToAllTokenEnumeration(uint256 tokenId) private {\r\n        _allTokensIndex[tokenId] = _allTokens.length;\r\n        _allTokens.push(tokenId);\r\n    }\r\n\r\n    \r\n    function _addTokensToOwnerEnumeration(address to, uint256 tokenId) private {\r\n        // ownedTokensIndex tokenId set to address of ownedTokens position\r\n        _ownedTokensIndex[tokenId] = _ownedTokens[to].length;\r\n        // add address and tokenId to the _ownedTokens\r\n        _ownedTokens[to].push(tokenId);\r\n    }\r\n\r\n    // return the total supply of _allTokens array\r\n    function totalSupply() public view returns (uint256) {\r\n        return _allTokens.length;\r\n    }\r\n\r\n\r\n    // returns tokenByIndex\r\n    function tokenByIndex(uint256 index) public view returns(uint256) {\r\n        require(index < totalSupply(), 'global index is out of bounds!');\r\n        return _allTokens[index];\r\n    }\r\n\r\n    // returns tokenOfOwnerByIndex\r\n    function tokenOfOwnerByIndex(address owner, uint256 index) public view returns(uint256) {\r\n        require(owner != address(0), 'owner address zero');\r\n        require(index < balanceOf(owner), 'owner index is out of bounds!');\r\n        return _ownedTokens[owner][index];\r\n    }\r\n\r\n}",
  "sourcePath": "D:\\Downloads\\Projects\\NFT-Marketplace\\nft-marketplace-project\\src\\contracts\\ERC721Enumerable.sol",
  "compiler": {
    "name": "solc",
    "version": "0.8.15+commit.e14f2714.Emscripten.clang"
  },
  "schemaVersion": "3.4.5",
  "updatedAt": "2022-06-30T06:48:21.999Z",
  "devdoc": {
    "kind": "dev",
    "methods": {},
    "version": 1
  },
  "userdoc": {
    "kind": "user",
    "methods": {},
    "version": 1
  }
}