{
  "contractName": "ERC721Connector",
  "abi": [
    {
      "inputs": [
        {
          "internalType": "string",
          "name": "name",
          "type": "string"
        },
        {
          "internalType": "string",
          "name": "symbol",
          "type": "string"
        }
      ],
      "stateMutability": "nonpayable",
      "type": "constructor"
    },
    {
      "anonymous": false,
      "inputs": [
        {
          "indexed": true,
          "internalType": "address",
          "name": "from",
          "type": "address"
        },
        {
          "indexed": true,
          "internalType": "address",
          "name": "to",
          "type": "address"
        },
        {
          "indexed": true,
          "internalType": "uint256",
          "name": "tokenId",
          "type": "uint256"
        }
      ],
      "name": "Transfer",
      "type": "event"
    },
    {
      "inputs": [
        {
          "internalType": "address",
          "name": "_owner",
          "type": "address"
        }
      ],
      "name": "balanceOf",
      "outputs": [
        {
          "internalType": "uint256",
          "name": "",
          "type": "uint256"
        }
      ],
      "stateMutability": "view",
      "type": "function"
    },
    {
      "inputs": [],
      "name": "name",
      "outputs": [
        {
          "internalType": "string",
          "name": "",
          "type": "string"
        }
      ],
      "stateMutability": "view",
      "type": "function"
    },
    {
      "inputs": [
        {
          "internalType": "uint256",
          "name": "_tokenId",
          "type": "uint256"
        }
      ],
      "name": "ownerOf",
      "outputs": [
        {
          "internalType": "address",
          "name": "",
          "type": "address"
        }
      ],
      "stateMutability": "view",
      "type": "function"
    },
    {
      "inputs": [],
      "name": "symbol",
      "outputs": [
        {
          "internalType": "string",
          "name": "",
          "type": "string"
        }
      ],
      "stateMutability": "view",
      "type": "function"
    },
    {
      "inputs": [
        {
          "internalType": "uint256",
          "name": "index",
          "type": "uint256"
        }
      ],
      "name": "tokenByIndex",
      "outputs": [
        {
          "internalType": "uint256",
          "name": "",
          "type": "uint256"
        }
      ],
      "stateMutability": "view",
      "type": "function"
    },
    {
      "inputs": [
        {
          "internalType": "address",
          "name": "owner",
          "type": "address"
        },
        {
          "internalType": "uint256",
          "name": "index",
          "type": "uint256"
        }
      ],
      "name": "tokenOfOwnerByIndex",
      "outputs": [
        {
          "internalType": "uint256",
          "name": "",
          "type": "uint256"
        }
      ],
      "stateMutability": "view",
      "type": "function"
    },
    {
      "inputs": [],
      "name": "totalSupply",
      "outputs": [
        {
          "internalType": "uint256",
          "name": "",
          "type": "uint256"
        }
      ],
      "stateMutability": "view",
      "type": "function"
    },
    {
      "inputs": [
        {
          "internalType": "address",
          "name": "_from",
          "type": "address"
        },
        {
          "internalType": "address",
          "name": "_to",
          "type": "address"
        },
        {
          "internalType": "uint256",
          "name": "_tokenId",
          "type": "uint256"
        }
      ],
      "name": "transferFrom",
      "outputs": [],
      "stateMutability": "nonpayable",
      "type": "function"
    }
  ],
  "bytecode": "0x60806040523480156200001157600080fd5b506040516200161338038062001613833981810160405281019062000037919062000204565b818181600090816200004a9190620004d4565b5080600190816200005c9190620004d4565b5050505050620005bb565b6000604051905090565b600080fd5b600080fd5b600080fd5b600080fd5b6000601f19601f8301169050919050565b7f4e487b7100000000000000000000000000000000000000000000000000000000600052604160045260246000fd5b620000d08262000085565b810181811067ffffffffffffffff82111715620000f257620000f162000096565b5b80604052505050565b60006200010762000067565b9050620001158282620000c5565b919050565b600067ffffffffffffffff82111562000138576200013762000096565b5b620001438262000085565b9050602081019050919050565b60005b838110156200017057808201518184015260208101905062000153565b8381111562000180576000848401525b50505050565b60006200019d62000197846200011a565b620000fb565b905082815260208101848484011115620001bc57620001bb62000080565b5b620001c984828562000150565b509392505050565b600082601f830112620001e957620001e86200007b565b5b8151620001fb84826020860162000186565b91505092915050565b600080604083850312156200021e576200021d62000071565b5b600083015167ffffffffffffffff8111156200023f576200023e62000076565b5b6200024d85828601620001d1565b925050602083015167ffffffffffffffff81111562000271576200027062000076565b5b6200027f85828601620001d1565b9150509250929050565b600081519050919050565b7f4e487b7100000000000000000000000000000000000000000000000000000000600052602260045260246000fd5b60006002820490506001821680620002dc57607f821691505b602082108103620002f257620002f162000294565b5b50919050565b60008190508160005260206000209050919050565b60006020601f8301049050919050565b600082821b905092915050565b6000600883026200035c7fffffffffffffffffffffffffffffffffffffffffffffffffffffffffffffffff826200031d565b6200036886836200031d565b95508019841693508086168417925050509392505050565b6000819050919050565b6000819050919050565b6000620003b5620003af620003a98462000380565b6200038a565b62000380565b9050919050565b6000819050919050565b620003d18362000394565b620003e9620003e082620003bc565b8484546200032a565b825550505050565b600090565b62000400620003f1565b6200040d818484620003c6565b505050565b5b81811015620004355762000429600082620003f6565b60018101905062000413565b5050565b601f82111562000484576200044e81620002f8565b62000459846200030d565b8101602085101562000469578190505b6200048162000478856200030d565b83018262000412565b50505b505050565b600082821c905092915050565b6000620004a96000198460080262000489565b1980831691505092915050565b6000620004c4838362000496565b9150826002028217905092915050565b620004df8262000289565b67ffffffffffffffff811115620004fb57620004fa62000096565b5b620005078254620002c3565b6200051482828562000439565b600060209050601f8311600181146200054c576000841562000537578287015190505b620005438582620004b6565b865550620005b3565b601f1984166200055c86620002f8565b60005b8281101562000586578489015182556001820191506020850194506020810190506200055f565b86831015620005a65784890151620005a2601f89168262000496565b8355505b6001600288020188555050505b505050505050565b61104880620005cb6000396000f3fe608060405234801561001057600080fd5b50600436106100885760003560e01c80634f6ccce71161005b5780634f6ccce7146101155780636352211e1461014557806370a082311461017557806395d89b41146101a557610088565b806306fdde031461008d57806318160ddd146100ab57806323b872dd146100c95780632f745c59146100e5575b600080fd5b6100956101c3565b6040516100a29190610948565b60405180910390f35b6100b3610255565b6040516100c09190610983565b60405180910390f35b6100e360048036038101906100de9190610a2d565b610262565b005b6100ff60048036038101906100fa9190610a80565b610272565b60405161010c9190610983565b60405180910390f35b61012f600480360381019061012a9190610ac0565b610390565b60405161013c9190610983565b60405180910390f35b61015f600480360381019061015a9190610ac0565b610401565b60405161016c9190610afc565b60405180910390f35b61018f600480360381019061018a9190610b17565b6104b2565b60405161019c9190610983565b60405180910390f35b6101ad610569565b6040516101ba9190610948565b60405180910390f35b6060600080546101d290610b73565b80601f01602080910402602001604051908101604052809291908181526020018280546101fe90610b73565b801561024b5780601f106102205761010080835404028352916020019161024b565b820191906000526020600020905b81548152906001019060200180831161022e57829003601f168201915b5050505050905090565b6000600580549050905090565b61026d8383836105fb565b505050565b60008073ffffffffffffffffffffffffffffffffffffffff168373ffffffffffffffffffffffffffffffffffffffff16036102e2576040517f08c379a00000000000000000000000000000000000000000000000000000000081526004016102d990610bf0565b60405180910390fd5b6102eb836104b2565b821061032c576040517f08c379a000000000000000000000000000000000000000000000000000000000815260040161032390610c5c565b60405180910390fd5b600760008473ffffffffffffffffffffffffffffffffffffffff1673ffffffffffffffffffffffffffffffffffffffff168152602001908152602001600020828154811061037d5761037c610c7c565b5b9060005260206000200154905092915050565b600061039a610255565b82106103db576040517f08c379a00000000000000000000000000000000000000000000000000000000081526004016103d290610cf7565b60405180910390fd5b600582815481106103ef576103ee610c7c565b5b90600052602060002001549050919050565b6000806002600084815260200190815260200160002060009054906101000a900473ffffffffffffffffffffffffffffffffffffffff169050600073ffffffffffffffffffffffffffffffffffffffff168173ffffffffffffffffffffffffffffffffffffffff16036104a9576040517f08c379a00000000000000000000000000000000000000000000000000000000081526004016104a090610d63565b60405180910390fd5b80915050919050565b60008073ffffffffffffffffffffffffffffffffffffffff168273ffffffffffffffffffffffffffffffffffffffff1603610522576040517f08c379a000000000000000000000000000000000000000000000000000000000815260040161051990610dcf565b60405180910390fd5b600360008373ffffffffffffffffffffffffffffffffffffffff1673ffffffffffffffffffffffffffffffffffffffff168152602001908152602001600020549050919050565b60606001805461057890610b73565b80601f01602080910402602001604051908101604052809291908181526020018280546105a490610b73565b80156105f15780601f106105c6576101008083540402835291602001916105f1565b820191906000526020600020905b8154815290600101906020018083116105d457829003601f168201915b5050505050905090565b600073ffffffffffffffffffffffffffffffffffffffff168273ffffffffffffffffffffffffffffffffffffffff160361066a576040517f08c379a000000000000000000000000000000000000000000000000000000000815260040161066190610e3b565b60405180910390fd5b600073ffffffffffffffffffffffffffffffffffffffff168373ffffffffffffffffffffffffffffffffffffffff16036106d9576040517f08c379a00000000000000000000000000000000000000000000000000000000081526004016106d090610ea7565b60405180910390fd5b8273ffffffffffffffffffffffffffffffffffffffff166106f982610401565b73ffffffffffffffffffffffffffffffffffffffff161461074f576040517f08c379a000000000000000000000000000000000000000000000000000000000815260040161074690610f39565b60405180910390fd5b6001600360008573ffffffffffffffffffffffffffffffffffffffff1673ffffffffffffffffffffffffffffffffffffffff168152602001908152602001600020600082825461079f9190610f88565b925050819055506001600360008473ffffffffffffffffffffffffffffffffffffffff1673ffffffffffffffffffffffffffffffffffffffff16815260200190815260200160002060008282546107f69190610fbc565b92505081905550816002600083815260200190815260200160002060006101000a81548173ffffffffffffffffffffffffffffffffffffffff021916908373ffffffffffffffffffffffffffffffffffffffff160217905550808273ffffffffffffffffffffffffffffffffffffffff168473ffffffffffffffffffffffffffffffffffffffff167fddf252ad1be2c89b69c2b068fc378daa952ba7f163c4a11628f55a4df523b3ef60405160405180910390a4505050565b600081519050919050565b600082825260208201905092915050565b60005b838110156108e95780820151818401526020810190506108ce565b838111156108f8576000848401525b50505050565b6000601f19601f8301169050919050565b600061091a826108af565b61092481856108ba565b93506109348185602086016108cb565b61093d816108fe565b840191505092915050565b60006020820190508181036000830152610962818461090f565b905092915050565b6000819050919050565b61097d8161096a565b82525050565b60006020820190506109986000830184610974565b92915050565b600080fd5b600073ffffffffffffffffffffffffffffffffffffffff82169050919050565b60006109ce826109a3565b9050919050565b6109de816109c3565b81146109e957600080fd5b50565b6000813590506109fb816109d5565b92915050565b610a0a8161096a565b8114610a1557600080fd5b50565b600081359050610a2781610a01565b92915050565b600080600060608486031215610a4657610a4561099e565b5b6000610a54868287016109ec565b9350506020610a65868287016109ec565b9250506040610a7686828701610a18565b9150509250925092565b60008060408385031215610a9757610a9661099e565b5b6000610aa5858286016109ec565b9250506020610ab685828601610a18565b9150509250929050565b600060208284031215610ad657610ad561099e565b5b6000610ae484828501610a18565b91505092915050565b610af6816109c3565b82525050565b6000602082019050610b116000830184610aed565b92915050565b600060208284031215610b2d57610b2c61099e565b5b6000610b3b848285016109ec565b91505092915050565b7f4e487b7100000000000000000000000000000000000000000000000000000000600052602260045260246000fd5b60006002820490506001821680610b8b57607f821691505b602082108103610b9e57610b9d610b44565b5b50919050565b7f6f776e65722061646472657373207a65726f0000000000000000000000000000600082015250565b6000610bda6012836108ba565b9150610be582610ba4565b602082019050919050565b60006020820190508181036000830152610c0981610bcd565b9050919050565b7f6f776e657220696e646578206973206f7574206f6620626f756e647321000000600082015250565b6000610c46601d836108ba565b9150610c5182610c10565b602082019050919050565b60006020820190508181036000830152610c7581610c39565b9050919050565b7f4e487b7100000000000000000000000000000000000000000000000000000000600052603260045260246000fd5b7f676c6f62616c20696e646578206973206f7574206f6620626f756e6473210000600082015250565b6000610ce1601e836108ba565b9150610cec82610cab565b602082019050919050565b60006020820190508181036000830152610d1081610cd4565b9050919050565b7f4552433732313a204f776e657220646f6573206e6f7420657869737400000000600082015250565b6000610d4d601c836108ba565b9150610d5882610d17565b602082019050919050565b60006020820190508181036000830152610d7c81610d40565b9050919050565b7f4552433732313a20416464726573732063616e6e6f74206265207a65726f0000600082015250565b6000610db9601e836108ba565b9150610dc482610d83565b602082019050919050565b60006020820190508181036000830152610de881610dac565b9050919050565b7f4552433732313a20726563656976696e672061646472657373207a65726f0000600082015250565b6000610e25601e836108ba565b9150610e3082610def565b602082019050919050565b60006020820190508181036000830152610e5481610e18565b9050919050565b7f4552433732313a2073656e64696e672061646472657373207a65726f00000000600082015250565b6000610e91601c836108ba565b9150610e9c82610e5b565b602082019050919050565b60006020820190508181036000830152610ec081610e84565b9050919050565b7f4552433732313a204f776e6572206164647265737320646f6573206e6f74206f60008201527f776e207468652073706563696669656420746f6b656e00000000000000000000602082015250565b6000610f236036836108ba565b9150610f2e82610ec7565b604082019050919050565b60006020820190508181036000830152610f5281610f16565b9050919050565b7f4e487b7100000000000000000000000000000000000000000000000000000000600052601160045260246000fd5b6000610f938261096a565b9150610f9e8361096a565b925082821015610fb157610fb0610f59565b5b828203905092915050565b6000610fc78261096a565b9150610fd28361096a565b9250827fffffffffffffffffffffffffffffffffffffffffffffffffffffffffffffffff0382111561100757611006610f59565b5b82820190509291505056fea2646970667358221220660535901038233c7800ad02a7dd0f93ae1c7983d92c638de2660d9516036c3864736f6c634300080f0033",
  "immutableReferences": {},
  "source": "// SPDX-License-Identifier: MIT\r\npragma solidity ^0.8.0;\r\n\r\nimport './ERC721Metadata.sol';\r\nimport './ERC721Enumerable.sol';\r\n\r\ncontract ERC721Connector is ERC721Metadata, ERC721Enumerable {\r\n    constructor(string memory name, string memory symbol) ERC721Metadata(name, symbol) {\r\n\r\n    }\r\n}",
  "sourcePath": "D:\\Downloads\\Projects\\NFT-Marketplace\\nft-marketplace-project\\src\\contracts\\ERC721Connector.sol",
  "compiler": {
    "name": "solc",
    "version": "0.8.15+commit.e14f2714.Emscripten.clang"
  },
  "schemaVersion": "3.4.5",
  "updatedAt": "2022-06-30T06:48:21.983Z",
  "devdoc": {
    "kind": "dev",
    "methods": {},
    "version": 1
  },
  "userdoc": {
    "kind": "user",
    "methods": {},
    "version": 1
  }
}