{
  "contractName": "KryptoBird",
  "abi": [
    {
      "inputs": [],
      "stateMutability": "nonpayable",
      "type": "constructor"
    },
    {
      "anonymous": false,
      "inputs": [
        {
          "indexed": true,
          "internalType": "address",
          "name": "from",
          "type": "address"
        },
        {
          "indexed": true,
          "internalType": "address",
          "name": "to",
          "type": "address"
        },
        {
          "indexed": true,
          "internalType": "uint256",
          "name": "tokenId",
          "type": "uint256"
        }
      ],
      "name": "Transfer",
      "type": "event"
    },
    {
      "inputs": [
        {
          "internalType": "address",
          "name": "_owner",
          "type": "address"
        }
      ],
      "name": "balanceOf",
      "outputs": [
        {
          "internalType": "uint256",
          "name": "",
          "type": "uint256"
        }
      ],
      "stateMutability": "view",
      "type": "function",
      "constant": true
    },
    {
      "inputs": [
        {
          "internalType": "uint256",
          "name": "",
          "type": "uint256"
        }
      ],
      "name": "kryptoBirdz",
      "outputs": [
        {
          "internalType": "string",
          "name": "",
          "type": "string"
        }
      ],
      "stateMutability": "view",
      "type": "function",
      "constant": true
    },
    {
      "inputs": [],
      "name": "name",
      "outputs": [
        {
          "internalType": "string",
          "name": "",
          "type": "string"
        }
      ],
      "stateMutability": "view",
      "type": "function",
      "constant": true
    },
    {
      "inputs": [
        {
          "internalType": "uint256",
          "name": "_tokenId",
          "type": "uint256"
        }
      ],
      "name": "ownerOf",
      "outputs": [
        {
          "internalType": "address",
          "name": "",
          "type": "address"
        }
      ],
      "stateMutability": "view",
      "type": "function",
      "constant": true
    },
    {
      "inputs": [],
      "name": "symbol",
      "outputs": [
        {
          "internalType": "string",
          "name": "",
          "type": "string"
        }
      ],
      "stateMutability": "view",
      "type": "function",
      "constant": true
    },
    {
      "inputs": [],
      "name": "totalSupply",
      "outputs": [
        {
          "internalType": "uint256",
          "name": "",
          "type": "uint256"
        }
      ],
      "stateMutability": "view",
      "type": "function",
      "constant": true
    },
    {
      "inputs": [
        {
          "internalType": "string",
          "name": "_kryptoBird",
          "type": "string"
        }
      ],
      "name": "mint",
      "outputs": [],
      "stateMutability": "nonpayable",
      "type": "function"
    }
  ],
  "bytecode": "0x60806040523480156200001157600080fd5b506040518060400160405280600a81526020017f4b727970746f42697264000000000000000000000000000000000000000000008152506040518060400160405280600681526020017f4b424952445a00000000000000000000000000000000000000000000000000008152508181816000908162000091919062000328565b508060019081620000a3919062000328565b50505050506200040f565b600081519050919050565b7f4e487b7100000000000000000000000000000000000000000000000000000000600052604160045260246000fd5b7f4e487b7100000000000000000000000000000000000000000000000000000000600052602260045260246000fd5b600060028204905060018216806200013057607f821691505b602082108103620001465762000145620000e8565b5b50919050565b60008190508160005260206000209050919050565b60006020601f8301049050919050565b600082821b905092915050565b600060088302620001b07fffffffffffffffffffffffffffffffffffffffffffffffffffffffffffffffff8262000171565b620001bc868362000171565b95508019841693508086168417925050509392505050565b6000819050919050565b6000819050919050565b60006200020962000203620001fd84620001d4565b620001de565b620001d4565b9050919050565b6000819050919050565b6200022583620001e8565b6200023d620002348262000210565b8484546200017e565b825550505050565b600090565b6200025462000245565b620002618184846200021a565b505050565b5b8181101562000289576200027d6000826200024a565b60018101905062000267565b5050565b601f821115620002d857620002a2816200014c565b620002ad8462000161565b81016020851015620002bd578190505b620002d5620002cc8562000161565b83018262000266565b50505b505050565b600082821c905092915050565b6000620002fd60001984600802620002dd565b1980831691505092915050565b6000620003188383620002ea565b9150826002028217905092915050565b6200033382620000ae565b67ffffffffffffffff8111156200034f576200034e620000b9565b5b6200035b825462000117565b620003688282856200028d565b600060209050601f831160018114620003a057600084156200038b578287015190505b6200039785826200030a565b86555062000407565b601f198416620003b0866200014c565b60005b82811015620003da57848901518255600182019150602085019450602081019050620003b3565b86831015620003fa5784890151620003f6601f891682620002ea565b8355505b6001600288020188555050505b505050505050565b611256806200041f6000396000f3fe608060405234801561001057600080fd5b506004361061007d5760003560e01c806370a082311161005b57806370a08231146100ee57806393ab6e561461011e57806395d89b411461014e578063d85d3d271461016c5761007d565b806306fdde031461008257806318160ddd146100a05780636352211e146100be575b600080fd5b61008a610188565b60405161009791906108d8565b60405180910390f35b6100a861021a565b6040516100b59190610913565b60405180910390f35b6100d860048036038101906100d3919061096e565b610227565b6040516100e591906109dc565b60405180910390f35b61010860048036038101906101039190610a23565b6102d8565b6040516101159190610913565b60405180910390f35b6101386004803603810190610133919061096e565b61038f565b60405161014591906108d8565b60405180910390f35b61015661043b565b60405161016391906108d8565b60405180910390f35b61018660048036038101906101819190610b85565b6104cd565b005b60606000805461019790610bfd565b80601f01602080910402602001604051908101604052809291908181526020018280546101c390610bfd565b80156102105780601f106101e557610100808354040283529160200191610210565b820191906000526020600020905b8154815290600101906020018083116101f357829003601f168201915b5050505050905090565b6000600480549050905090565b6000806002600084815260200190815260200160002060009054906101000a900473ffffffffffffffffffffffffffffffffffffffff169050600073ffffffffffffffffffffffffffffffffffffffff168173ffffffffffffffffffffffffffffffffffffffff16036102cf576040517f08c379a00000000000000000000000000000000000000000000000000000000081526004016102c690610c7a565b60405180910390fd5b80915050919050565b60008073ffffffffffffffffffffffffffffffffffffffff168273ffffffffffffffffffffffffffffffffffffffff1603610348576040517f08c379a000000000000000000000000000000000000000000000000000000000815260040161033f90610ce6565b60405180910390fd5b600360008373ffffffffffffffffffffffffffffffffffffffff1673ffffffffffffffffffffffffffffffffffffffff168152602001908152602001600020549050919050565b6008818154811061039f57600080fd5b9060005260206000200160009150905080546103ba90610bfd565b80601f01602080910402602001604051908101604052809291908181526020018280546103e690610bfd565b80156104335780601f1061040857610100808354040283529160200191610433565b820191906000526020600020905b81548152906001019060200180831161041657829003601f168201915b505050505081565b60606001805461044a90610bfd565b80601f016020809104026020016040519081016040528092919081815260200182805461047690610bfd565b80156104c35780601f10610498576101008083540402835291602001916104c3565b820191906000526020600020905b8154815290600101906020018083116104a657829003601f168201915b5050505050905090565b6009816040516104dd9190610d42565b908152602001604051809103902060009054906101000a900460ff1615610539576040517f08c379a000000000000000000000000000000000000000000000000000000000815260040161053090610dcb565b60405180910390fd5b60088190806001815401808255809150506001900390600052602060002001600090919091909150908161056d9190610f97565b50600060016008805490506105829190611098565b905061058e33826105c9565b60016009836040516105a09190610d42565b908152602001604051809103902060006101000a81548160ff0219169083151502179055505050565b6105d382826105e0565b6105dc816107a1565b5050565b600073ffffffffffffffffffffffffffffffffffffffff168273ffffffffffffffffffffffffffffffffffffffff160361064f576040517f08c379a00000000000000000000000000000000000000000000000000000000081526004016106469061113e565b60405180910390fd5b610658816107cd565b15610698576040517f08c379a000000000000000000000000000000000000000000000000000000000815260040161068f906111aa565b60405180910390fd5b816002600083815260200190815260200160002060006101000a81548173ffffffffffffffffffffffffffffffffffffffff021916908373ffffffffffffffffffffffffffffffffffffffff1602179055506001600360008473ffffffffffffffffffffffffffffffffffffffff1673ffffffffffffffffffffffffffffffffffffffff168152602001908152602001600020600082825461073a91906111ca565b92505081905550808273ffffffffffffffffffffffffffffffffffffffff16600073ffffffffffffffffffffffffffffffffffffffff167fddf252ad1be2c89b69c2b068fc378daa952ba7f163c4a11628f55a4df523b3ef60405160405180910390a45050565b600481908060018154018082558091505060019003906000526020600020016000909190919091505550565b6000806002600084815260200190815260200160002060009054906101000a900473ffffffffffffffffffffffffffffffffffffffff169050600073ffffffffffffffffffffffffffffffffffffffff168173ffffffffffffffffffffffffffffffffffffffff161415915050919050565b600081519050919050565b600082825260208201905092915050565b60005b8381101561087957808201518184015260208101905061085e565b83811115610888576000848401525b50505050565b6000601f19601f8301169050919050565b60006108aa8261083f565b6108b4818561084a565b93506108c481856020860161085b565b6108cd8161088e565b840191505092915050565b600060208201905081810360008301526108f2818461089f565b905092915050565b6000819050919050565b61090d816108fa565b82525050565b60006020820190506109286000830184610904565b92915050565b6000604051905090565b600080fd5b600080fd5b61094b816108fa565b811461095657600080fd5b50565b60008135905061096881610942565b92915050565b60006020828403121561098457610983610938565b5b600061099284828501610959565b91505092915050565b600073ffffffffffffffffffffffffffffffffffffffff82169050919050565b60006109c68261099b565b9050919050565b6109d6816109bb565b82525050565b60006020820190506109f160008301846109cd565b92915050565b610a00816109bb565b8114610a0b57600080fd5b50565b600081359050610a1d816109f7565b92915050565b600060208284031215610a3957610a38610938565b5b6000610a4784828501610a0e565b91505092915050565b600080fd5b600080fd5b7f4e487b7100000000000000000000000000000000000000000000000000000000600052604160045260246000fd5b610a928261088e565b810181811067ffffffffffffffff82111715610ab157610ab0610a5a565b5b80604052505050565b6000610ac461092e565b9050610ad08282610a89565b919050565b600067ffffffffffffffff821115610af057610aef610a5a565b5b610af98261088e565b9050602081019050919050565b82818337600083830152505050565b6000610b28610b2384610ad5565b610aba565b905082815260208101848484011115610b4457610b43610a55565b5b610b4f848285610b06565b509392505050565b600082601f830112610b6c57610b6b610a50565b5b8135610b7c848260208601610b15565b91505092915050565b600060208284031215610b9b57610b9a610938565b5b600082013567ffffffffffffffff811115610bb957610bb861093d565b5b610bc584828501610b57565b91505092915050565b7f4e487b7100000000000000000000000000000000000000000000000000000000600052602260045260246000fd5b60006002820490506001821680610c1557607f821691505b602082108103610c2857610c27610bce565b5b50919050565b7f4552433732313a204f776e657220646f6573206e6f7420657869737400000000600082015250565b6000610c64601c8361084a565b9150610c6f82610c2e565b602082019050919050565b60006020820190508181036000830152610c9381610c57565b9050919050565b7f4552433732313a20416464726573732063616e6e6f74206265207a65726f0000600082015250565b6000610cd0601e8361084a565b9150610cdb82610c9a565b602082019050919050565b60006020820190508181036000830152610cff81610cc3565b9050919050565b600081905092915050565b6000610d1c8261083f565b610d268185610d06565b9350610d3681856020860161085b565b80840191505092915050565b6000610d4e8284610d11565b915081905092915050565b7f4572726f72202d204b727970746f4269726420616c726561647920657869737460008201527f7300000000000000000000000000000000000000000000000000000000000000602082015250565b6000610db560218361084a565b9150610dc082610d59565b604082019050919050565b60006020820190508181036000830152610de481610da8565b9050919050565b60008190508160005260206000209050919050565b60006020601f8301049050919050565b600082821b905092915050565b600060088302610e4d7fffffffffffffffffffffffffffffffffffffffffffffffffffffffffffffffff82610e10565b610e578683610e10565b95508019841693508086168417925050509392505050565b6000819050919050565b6000610e94610e8f610e8a846108fa565b610e6f565b6108fa565b9050919050565b6000819050919050565b610eae83610e79565b610ec2610eba82610e9b565b848454610e1d565b825550505050565b600090565b610ed7610eca565b610ee2818484610ea5565b505050565b5b81811015610f0657610efb600082610ecf565b600181019050610ee8565b5050565b601f821115610f4b57610f1c81610deb565b610f2584610e00565b81016020851015610f34578190505b610f48610f4085610e00565b830182610ee7565b50505b505050565b600082821c905092915050565b6000610f6e60001984600802610f50565b1980831691505092915050565b6000610f878383610f5d565b9150826002028217905092915050565b610fa08261083f565b67ffffffffffffffff811115610fb957610fb8610a5a565b5b610fc38254610bfd565b610fce828285610f0a565b600060209050601f8311600181146110015760008415610fef578287015190505b610ff98582610f7b565b865550611061565b601f19841661100f86610deb565b60005b8281101561103757848901518255600182019150602085019450602081019050611012565b868310156110545784890151611050601f891682610f5d565b8355505b6001600288020188555050505b505050505050565b7f4e487b7100000000000000000000000000000000000000000000000000000000600052601160045260246000fd5b60006110a3826108fa565b91506110ae836108fa565b9250828210156110c1576110c0611069565b5b828203905092915050565b7f4552433732313a206d696e74696e6720746f20746865207a65726f206164647260008201527f6573730000000000000000000000000000000000000000000000000000000000602082015250565b600061112860238361084a565b9150611133826110cc565b604082019050919050565b600060208201905081810360008301526111578161111b565b9050919050565b7f4552433732313a20746f6b656e20616c7265616479206d696e74656400000000600082015250565b6000611194601c8361084a565b915061119f8261115e565b602082019050919050565b600060208201905081810360008301526111c381611187565b9050919050565b60006111d5826108fa565b91506111e0836108fa565b9250827fffffffffffffffffffffffffffffffffffffffffffffffffffffffffffffffff0382111561121557611214611069565b5b82820190509291505056fea264697066735822122039ea5ca78178b96a08cebd61e799cf9efd5a7622fa343d913d0a4db1e558743064736f6c634300080f0033",
  "immutableReferences": {},
  "source": "// SPDX-License-Identifier: MIT\r\npragma solidity ^0.8.0;\r\n\r\nimport './ERC721Connector.sol';\r\n\r\ncontract KryptoBird is ERC721Connector {\r\n\r\n    // array to store our nfts\r\n    string [] public kryptoBirdz;\r\n\r\n    mapping(string => bool) _kryptoBirdzExists;\r\n\r\n    function mint(string memory _kryptoBird) public {\r\n\r\n        require(!_kryptoBirdzExists[_kryptoBird], 'Error - KryptoBird already exists');\r\n\r\n        kryptoBirdz.push(_kryptoBird);\r\n        uint _id = kryptoBirdz.length - 1;\r\n\r\n        _mint(msg.sender, _id);\r\n\r\n        _kryptoBirdzExists[_kryptoBird] = true;\r\n    }\r\n\r\n    constructor() ERC721Connector('KryptoBird', 'KBIRDZ') {}\r\n\r\n}",
  "sourcePath": "D:\\Downloads\\Projects\\NFT-Marketplace\\nft-marketplace-project\\src\\contracts\\KryptoBirdz.sol",
  "compiler": {
    "name": "solc",
    "version": "0.8.15+commit.e14f2714.Emscripten.clang"
  },
  "schemaVersion": "3.4.5",
  "updatedAt": "2022-06-29T09:19:21.761Z",
  "networkType": "ethereum",
  "devdoc": {
    "kind": "dev",
    "methods": {},
    "version": 1
  },
  "userdoc": {
    "kind": "user",
    "methods": {},
    "version": 1
  }
}